{
  "contractName": "DAO",
  "abi": [
    {
      "inputs": [
        {
          "internalType": "uint256",
          "name": "contributionTime",
          "type": "uint256"
        },
        {
          "internalType": "uint256",
          "name": "_voteTime",
          "type": "uint256"
        },
        {
          "internalType": "uint256",
          "name": "_quorum",
          "type": "uint256"
        }
      ],
      "stateMutability": "nonpayable",
      "type": "constructor"
    },
    {
      "anonymous": false,
      "inputs": [
        {
          "indexed": false,
          "internalType": "uint256",
          "name": "proposalId",
          "type": "uint256"
        },
        {
          "indexed": false,
          "internalType": "address",
          "name": "sender",
          "type": "address"
        },
        {
          "indexed": false,
          "internalType": "bool",
          "name": "voted",
          "type": "bool"
        }
      ],
      "name": "emitVote",
      "type": "event"
    },
    {
      "anonymous": false,
      "inputs": [
        {
          "indexed": false,
          "internalType": "uint256",
          "name": "id",
          "type": "uint256"
        },
        {
          "indexed": false,
          "internalType": "string",
          "name": "name",
          "type": "string"
        },
        {
          "indexed": false,
          "internalType": "uint256",
          "name": "amount",
          "type": "uint256"
        },
        {
          "indexed": false,
          "internalType": "address",
          "name": "recipient",
          "type": "address"
        },
        {
          "indexed": false,
          "internalType": "uint256",
          "name": "votes",
          "type": "uint256"
        },
        {
          "indexed": false,
          "internalType": "uint256",
          "name": "end",
          "type": "uint256"
        },
        {
          "indexed": false,
          "internalType": "bool",
          "name": "executed",
          "type": "bool"
        }
      ],
      "name": "proposalEdit",
      "type": "event"
    },
    {
      "stateMutability": "payable",
      "type": "fallback",
      "payable": true
    },
    {
      "inputs": [],
      "name": "admin",
      "outputs": [
        {
          "internalType": "address",
          "name": "",
          "type": "address"
        }
      ],
      "stateMutability": "view",
      "type": "function",
      "constant": true
    },
    {
      "inputs": [],
      "name": "availableFunds",
      "outputs": [
        {
          "internalType": "uint256",
          "name": "",
          "type": "uint256"
        }
      ],
      "stateMutability": "view",
      "type": "function",
      "constant": true
    },
    {
      "inputs": [],
      "name": "contributionEnd",
      "outputs": [
        {
          "internalType": "uint256",
          "name": "",
          "type": "uint256"
        }
      ],
      "stateMutability": "view",
      "type": "function",
      "constant": true
    },
    {
      "inputs": [
        {
          "internalType": "address",
          "name": "",
          "type": "address"
        }
      ],
      "name": "investors",
      "outputs": [
        {
          "internalType": "bool",
          "name": "",
          "type": "bool"
        }
      ],
      "stateMutability": "view",
      "type": "function",
      "constant": true
    },
    {
      "inputs": [],
      "name": "nextProposalId",
      "outputs": [
        {
          "internalType": "uint256",
          "name": "",
          "type": "uint256"
        }
      ],
      "stateMutability": "view",
      "type": "function",
      "constant": true
    },
    {
      "inputs": [
        {
          "internalType": "address",
          "name": "",
          "type": "address"
        }
      ],
      "name": "numberOfVotes",
      "outputs": [
        {
          "internalType": "uint256",
          "name": "",
          "type": "uint256"
        }
      ],
      "stateMutability": "view",
      "type": "function",
      "constant": true
    },
    {
      "inputs": [
        {
          "internalType": "uint256",
          "name": "",
          "type": "uint256"
        }
      ],
      "name": "proposals",
      "outputs": [
        {
          "internalType": "uint256",
          "name": "id",
          "type": "uint256"
        },
        {
          "internalType": "string",
          "name": "name",
          "type": "string"
        },
        {
          "internalType": "uint256",
          "name": "amount",
          "type": "uint256"
        },
        {
          "internalType": "address payable",
          "name": "recipient",
          "type": "address"
        },
        {
          "internalType": "uint256",
          "name": "votes",
          "type": "uint256"
        },
        {
          "internalType": "uint256",
          "name": "end",
          "type": "uint256"
        },
        {
          "internalType": "bool",
          "name": "executed",
          "type": "bool"
        }
      ],
      "stateMutability": "view",
      "type": "function",
      "constant": true
    },
    {
      "inputs": [],
      "name": "quorum",
      "outputs": [
        {
          "internalType": "uint256",
          "name": "",
          "type": "uint256"
        }
      ],
      "stateMutability": "view",
      "type": "function",
      "constant": true
    },
    {
      "inputs": [
        {
          "internalType": "address",
          "name": "",
          "type": "address"
        }
      ],
      "name": "shares",
      "outputs": [
        {
          "internalType": "uint256",
          "name": "",
          "type": "uint256"
        }
      ],
      "stateMutability": "view",
      "type": "function",
      "constant": true
    },
    {
      "inputs": [],
      "name": "totalShares",
      "outputs": [
        {
          "internalType": "uint256",
          "name": "",
          "type": "uint256"
        }
      ],
      "stateMutability": "view",
      "type": "function",
      "constant": true
    },
    {
      "inputs": [],
      "name": "voteTime",
      "outputs": [
        {
          "internalType": "uint256",
          "name": "",
          "type": "uint256"
        }
      ],
      "stateMutability": "view",
      "type": "function",
      "constant": true
    },
    {
      "stateMutability": "payable",
      "type": "receive",
      "payable": true
    },
    {
      "inputs": [],
      "name": "contribute",
      "outputs": [],
      "stateMutability": "payable",
      "type": "function",
      "payable": true
    },
    {
      "inputs": [
        {
          "internalType": "address",
          "name": "a",
          "type": "address"
        },
        {
          "internalType": "uint256",
          "name": "b",
          "type": "uint256"
        }
      ],
      "name": "getVoteStatus",
      "outputs": [
        {
          "internalType": "bool",
          "name": "",
          "type": "bool"
        }
      ],
      "stateMutability": "view",
      "type": "function",
      "constant": true
    },
    {
      "inputs": [
        {
          "internalType": "uint256",
          "name": "amount",
          "type": "uint256"
        }
      ],
      "name": "redeemShare",
      "outputs": [],
      "stateMutability": "nonpayable",
      "type": "function"
    },
    {
      "inputs": [
        {
          "internalType": "uint256",
          "name": "amount",
          "type": "uint256"
        },
        {
          "internalType": "address",
          "name": "to",
          "type": "address"
        }
      ],
      "name": "transferShares",
      "outputs": [],
      "stateMutability": "nonpayable",
      "type": "function"
    },
    {
      "inputs": [
        {
          "internalType": "string",
          "name": "name",
          "type": "string"
        },
        {
          "internalType": "uint256",
          "name": "amount",
          "type": "uint256"
        },
        {
          "internalType": "address payable",
          "name": "recipient",
          "type": "address"
        }
      ],
      "name": "createProposal",
      "outputs": [],
      "stateMutability": "nonpayable",
      "type": "function"
    },
    {
      "inputs": [
        {
          "internalType": "uint256",
          "name": "proposalId",
          "type": "uint256"
        }
      ],
      "name": "vote",
      "outputs": [],
      "stateMutability": "nonpayable",
      "type": "function"
    },
    {
      "inputs": [
        {
          "internalType": "uint256",
          "name": "proposalId",
          "type": "uint256"
        }
      ],
      "name": "executeProposal",
      "outputs": [],
      "stateMutability": "nonpayable",
      "type": "function"
    },
    {
      "inputs": [
        {
          "internalType": "uint256",
          "name": "amount",
          "type": "uint256"
        },
        {
          "internalType": "address payable",
          "name": "to",
          "type": "address"
        }
      ],
      "name": "withdrawEther",
      "outputs": [],
      "stateMutability": "nonpayable",
      "type": "function"
    }
  ],
  "bytecode": "0x60806040523480156200001157600080fd5b506040516200258138038062002581833981810160405281019062000037919062000136565b600081118015620000485750606481105b6200008a576040517f08c379a00000000000000000000000000000000000000000000000000000000081526004016200008190620001f3565b60405180910390fd5b824262000098919062000244565b6007819055508160098190555080600a8190555033600b60006101000a81548173ffffffffffffffffffffffffffffffffffffffff021916908373ffffffffffffffffffffffffffffffffffffffff160217905550505050620002a1565b600080fd5b6000819050919050565b6200011081620000fb565b81146200011c57600080fd5b50565b600081519050620001308162000105565b92915050565b600080600060608486031215620001525762000151620000f6565b5b600062000162868287016200011f565b935050602062000175868287016200011f565b925050604062000188868287016200011f565b9150509250925092565b600082825260208201905092915050565b7f71756f72756d206d757374206265206265747765656e203020616e6420313030600082015250565b6000620001db60208362000192565b9150620001e882620001a3565b602082019050919050565b600060208201905081810360008301526200020e81620001cc565b9050919050565b7f4e487b7100000000000000000000000000000000000000000000000000000000600052601160045260246000fd5b60006200025182620000fb565b91506200025e83620000fb565b9250827fffffffffffffffffffffffffffffffffffffffffffffffffffffffffffffffff0382111562000296576200029562000215565b5b828201905092915050565b6122d080620002b16000396000f3fe608060405260043610610135576000357c0100000000000000000000000000000000000000000000000000000000900480636f7bc9be116100bd578063ce56c45411610081578063ce56c454146103f5578063ce7c2ac21461041e578063d151b5161461045b578063d7bb99ba14610486578063f851a440146104905761013c565b80636f7bc9be146102ea57806375f7b6d014610327578063868643df14610364578063a80073631461038d578063bcf93dd6146103ca5761013c565b80632ab09d14116101045780632ab09d14146102175780633a98ef391461024257806345579b1f1461026d57806346fcff4c146102965780636ac1e01f146102c15761013c565b80630121b93f14610157578063013cf08b146101805780630d61b519146101c35780631703a018146101ec5761013c565b3661013c57005b346006600082825461014e91906114a1565b92505081905550005b34801561016357600080fd5b5061017e60048036038101906101799190611537565b6104bb565b005b34801561018c57600080fd5b506101a760048036038101906101a29190611537565b6107a6565b6040516101ba9796959493929190611668565b60405180910390f35b3480156101cf57600080fd5b506101ea60048036038101906101e59190611537565b61089d565b005b3480156101f857600080fd5b50610201610ab4565b60405161020e91906116de565b60405180910390f35b34801561022357600080fd5b5061022c610aba565b60405161023991906116de565b60405180910390f35b34801561024e57600080fd5b50610257610ac0565b60405161026491906116de565b60405180910390f35b34801561027957600080fd5b50610294600480360381019061028f9190611737565b610ac6565b005b3480156102a257600080fd5b506102ab610c4f565b6040516102b891906116de565b60405180910390f35b3480156102cd57600080fd5b506102e860048036038101906102e391906118d8565b610c55565b005b3480156102f657600080fd5b50610311600480360381019061030c9190611947565b610ed6565b60405161031e9190611974565b60405180910390f35b34801561033357600080fd5b5061034e6004803603810190610349919061198f565b610ef6565b60405161035b9190611974565b60405180910390f35b34801561037057600080fd5b5061038b60048036038101906103869190611537565b610f5e565b005b34801561039957600080fd5b506103b460048036038101906103af9190611947565b6110f7565b6040516103c191906116de565b60405180910390f35b3480156103d657600080fd5b506103df61110f565b6040516103ec91906116de565b60405180910390f35b34801561040157600080fd5b5061041c600480360381019061041791906119cf565b611115565b005b34801561042a57600080fd5b5061044560048036038101906104409190611947565b6111b3565b60405161045291906116de565b60405180910390f35b34801561046757600080fd5b506104706111cb565b60405161047d91906116de565b60405180910390f35b61048e6111d1565b005b34801561049c57600080fd5b506104a56112f6565b6040516104b29190611a1e565b60405180910390f35b60011515600160003373ffffffffffffffffffffffffffffffffffffffff1673ffffffffffffffffffffffffffffffffffffffff16815260200190815260200160002060009054906101000a900460ff1615151461054e576040517f08c379a000000000000000000000000000000000000000000000000000000000815260040161054590611a85565b60405180910390fd5b6000806000838152602001908152602001600020905060001515600360003373ffffffffffffffffffffffffffffffffffffffff1673ffffffffffffffffffffffffffffffffffffffff168152602001908152602001600020600084815260200190815260200160002060009054906101000a900460ff16151514610608576040517f08c379a00000000000000000000000000000000000000000000000000000000081526004016105ff90611b17565b60405180910390fd5b8060050154421061064e576040517f08c379a000000000000000000000000000000000000000000000000000000000815260040161064590611b83565b60405180910390fd5b6001600360003373ffffffffffffffffffffffffffffffffffffffff1673ffffffffffffffffffffffffffffffffffffffff168152602001908152602001600020600084815260200190815260200160002060006101000a81548160ff021916908315150217905550600260003373ffffffffffffffffffffffffffffffffffffffff1673ffffffffffffffffffffffffffffffffffffffff1681526020019081526020016000205481600401600082825461070a91906114a1565b92505081905550600460003373ffffffffffffffffffffffffffffffffffffffff1673ffffffffffffffffffffffffffffffffffffffff168152602001908152602001600020600081548092919061076190611ba3565b91905055507ff9b6724c37713a19217c530d331477caf419e4fb650a243908e298b7a0a025268233600160405161079a93929190611bec565b60405180910390a15050565b60006020528060005260406000206000915090508060000154908060010180546107cf90611c52565b80601f01602080910402602001604051908101604052809291908181526020018280546107fb90611c52565b80156108485780601f1061081d57610100808354040283529160200191610848565b820191906000526020600020905b81548152906001019060200180831161082b57829003601f168201915b5050505050908060020154908060030160009054906101000a900473ffffffffffffffffffffffffffffffffffffffff16908060040154908060050154908060060160009054906101000a900460ff16905087565b600b60009054906101000a900473ffffffffffffffffffffffffffffffffffffffff1673ffffffffffffffffffffffffffffffffffffffff163373ffffffffffffffffffffffffffffffffffffffff161461092d576040517f08c379a000000000000000000000000000000000000000000000000000000000815260040161092490611cd0565b60405180910390fd5b60008060008381526020019081526020016000209050806005015442101561098a576040517f08c379a000000000000000000000000000000000000000000000000000000000815260040161098190611d62565b60405180910390fd5b600015158160060160009054906101000a900460ff161515146109e2576040517f08c379a00000000000000000000000000000000000000000000000000000000081526004016109d990611df4565b60405180910390fd5b600a54600554826004015460646109f99190611e14565b610a039190611e9d565b1015610a44576040517f08c379a0000000000000000000000000000000000000000000000000000000008152600401610a3b90611f1a565b60405180910390fd5b60018160060160006101000a81548160ff021916908315150217905550806002015460066000828254610a7791906114a1565b92505081905550610ab081600201548260030160009054906101000a900473ffffffffffffffffffffffffffffffffffffffff1661131c565b5050565b600a5481565b60085481565b60055481565b81600260003373ffffffffffffffffffffffffffffffffffffffff1673ffffffffffffffffffffffffffffffffffffffff168152602001908152602001600020541015610b48576040517f08c379a0000000000000000000000000000000000000000000000000000000008152600401610b3f90611f86565b60405180910390fd5b81600260003373ffffffffffffffffffffffffffffffffffffffff1673ffffffffffffffffffffffffffffffffffffffff1681526020019081526020016000206000828254610b979190611fa6565b9250508190555081600260008373ffffffffffffffffffffffffffffffffffffffff1673ffffffffffffffffffffffffffffffffffffffff1681526020019081526020016000206000828254610bed91906114a1565b9250508190555060018060008373ffffffffffffffffffffffffffffffffffffffff1673ffffffffffffffffffffffffffffffffffffffff16815260200190815260200160002060006101000a81548160ff0219169083151502179055505050565b60065481565b60011515600160003373ffffffffffffffffffffffffffffffffffffffff1673ffffffffffffffffffffffffffffffffffffffff16815260200190815260200160002060009054906101000a900460ff16151514610ce8576040517f08c379a0000000000000000000000000000000000000000000000000000000008152600401610cdf90611a85565b60405180910390fd5b816006541015610d2d576040517f08c379a0000000000000000000000000000000000000000000000000000000008152600401610d2490612026565b60405180910390fd5b6040518060e0016040528060085481526020018481526020018381526020018273ffffffffffffffffffffffffffffffffffffffff1681526020016000815260200160095442610d7d91906114a1565b8152602001600015158152506000806008548152602001908152602001600020600082015181600001556020820151816001019080519060200190610dc39291906113c5565b506040820151816002015560608201518160030160006101000a81548173ffffffffffffffffffffffffffffffffffffffff021916908373ffffffffffffffffffffffffffffffffffffffff1602179055506080820151816004015560a0820151816005015560c08201518160060160006101000a81548160ff0219169083151502179055509050508160066000828254610e5e9190611fa6565b9250508190555060086000815480929190610e7890611ba3565b91905055507fa3352081ab4d55e4b7e9e154c9fa9103365787141f662d0f575024fd7428786a600854848484600060095442610eb491906114a1565b6000604051610ec997969594939291906120e0565b60405180910390a1505050565b60016020528060005260406000206000915054906101000a900460ff1681565b6000600360008473ffffffffffffffffffffffffffffffffffffffff1673ffffffffffffffffffffffffffffffffffffffff168152602001908152602001600020600083815260200190815260200160002060009054906101000a900460ff16905092915050565b80600260003373ffffffffffffffffffffffffffffffffffffffff1673ffffffffffffffffffffffffffffffffffffffff168152602001908152602001600020541015610fe0576040517f08c379a0000000000000000000000000000000000000000000000000000000008152600401610fd790611f86565b60405180910390fd5b806006541015611025576040517f08c379a000000000000000000000000000000000000000000000000000000000815260040161101c906121a2565b60405180910390fd5b80600260003373ffffffffffffffffffffffffffffffffffffffff1673ffffffffffffffffffffffffffffffffffffffff16815260200190815260200160002060008282546110749190611fa6565b92505081905550806006600082825461108d9190611fa6565b9250508190555080600560008282546110a69190611fa6565b925050819055503373ffffffffffffffffffffffffffffffffffffffff166108fc829081150290604051600060405180830381858888f193505050501580156110f3573d6000803e3d6000fd5b5050565b60046020528060005260406000206000915090505481565b60095481565b600b60009054906101000a900473ffffffffffffffffffffffffffffffffffffffff1673ffffffffffffffffffffffffffffffffffffffff163373ffffffffffffffffffffffffffffffffffffffff16146111a5576040517f08c379a000000000000000000000000000000000000000000000000000000000815260040161119c90611cd0565b60405180910390fd5b6111af828261131c565b5050565b60026020528060005260406000206000915090505481565b60075481565b6007544210611215576040517f08c379a000000000000000000000000000000000000000000000000000000000815260040161120c9061220e565b60405180910390fd5b60018060003373ffffffffffffffffffffffffffffffffffffffff1673ffffffffffffffffffffffffffffffffffffffff16815260200190815260200160002060006101000a81548160ff02191690831515021790555034600260003373ffffffffffffffffffffffffffffffffffffffff1673ffffffffffffffffffffffffffffffffffffffff16815260200190815260200160002060008282546112bb91906114a1565b9250508190555034600560008282546112d491906114a1565b9250508190555034600660008282546112ed91906114a1565b92505081905550565b600b60009054906101000a900473ffffffffffffffffffffffffffffffffffffffff1681565b600654821115611361576040517f08c379a00000000000000000000000000000000000000000000000000000000081526004016113589061227a565b60405180910390fd5b81600660008282546113739190611fa6565b925050819055508073ffffffffffffffffffffffffffffffffffffffff166108fc839081150290604051600060405180830381858888f193505050501580156113c0573d6000803e3d6000fd5b505050565b8280546113d190611c52565b90600052602060002090601f0160209004810192826113f3576000855561143a565b82601f1061140c57805160ff191683800117855561143a565b8280016001018555821561143a579182015b8281111561143957825182559160200191906001019061141e565b5b509050611447919061144b565b5090565b5b8082111561146457600081600090555060010161144c565b5090565b6000819050919050565b7f4e487b7100000000000000000000000000000000000000000000000000000000600052601160045260246000fd5b60006114ac82611468565b91506114b783611468565b9250827fffffffffffffffffffffffffffffffffffffffffffffffffffffffffffffffff038211156114ec576114eb611472565b5b828201905092915050565b6000604051905090565b600080fd5b600080fd5b61151481611468565b811461151f57600080fd5b50565b6000813590506115318161150b565b92915050565b60006020828403121561154d5761154c611501565b5b600061155b84828501611522565b91505092915050565b61156d81611468565b82525050565b600081519050919050565b600082825260208201905092915050565b60005b838110156115ad578082015181840152602081019050611592565b838111156115bc576000848401525b50505050565b6000601f19601f8301169050919050565b60006115de82611573565b6115e8818561157e565b93506115f881856020860161158f565b611601816115c2565b840191505092915050565b600073ffffffffffffffffffffffffffffffffffffffff82169050919050565b60006116378261160c565b9050919050565b6116478161162c565b82525050565b60008115159050919050565b6116628161164d565b82525050565b600060e08201905061167d600083018a611564565b818103602083015261168f81896115d3565b905061169e6040830188611564565b6116ab606083018761163e565b6116b86080830186611564565b6116c560a0830185611564565b6116d260c0830184611659565b98975050505050505050565b60006020820190506116f36000830184611564565b92915050565b60006117048261160c565b9050919050565b611714816116f9565b811461171f57600080fd5b50565b6000813590506117318161170b565b92915050565b6000806040838503121561174e5761174d611501565b5b600061175c85828601611522565b925050602061176d85828601611722565b9150509250929050565b600080fd5b600080fd5b7f4e487b7100000000000000000000000000000000000000000000000000000000600052604160045260246000fd5b6117b9826115c2565b810181811067ffffffffffffffff821117156117d8576117d7611781565b5b80604052505050565b60006117eb6114f7565b90506117f782826117b0565b919050565b600067ffffffffffffffff82111561181757611816611781565b5b611820826115c2565b9050602081019050919050565b82818337600083830152505050565b600061184f61184a846117fc565b6117e1565b90508281526020810184848401111561186b5761186a61177c565b5b61187684828561182d565b509392505050565b600082601f83011261189357611892611777565b5b81356118a384826020860161183c565b91505092915050565b6118b58161162c565b81146118c057600080fd5b50565b6000813590506118d2816118ac565b92915050565b6000806000606084860312156118f1576118f0611501565b5b600084013567ffffffffffffffff81111561190f5761190e611506565b5b61191b8682870161187e565b935050602061192c86828701611522565b925050604061193d868287016118c3565b9150509250925092565b60006020828403121561195d5761195c611501565b5b600061196b84828501611722565b91505092915050565b60006020820190506119896000830184611659565b92915050565b600080604083850312156119a6576119a5611501565b5b60006119b485828601611722565b92505060206119c585828601611522565b9150509250929050565b600080604083850312156119e6576119e5611501565b5b60006119f485828601611522565b9250506020611a05858286016118c3565b9150509250929050565b611a18816116f9565b82525050565b6000602082019050611a336000830184611a0f565b92915050565b7f6f6e6c7920696e766573746f7273000000000000000000000000000000000000600082015250565b6000611a6f600e8361157e565b9150611a7a82611a39565b602082019050919050565b60006020820190508181036000830152611a9e81611a62565b9050919050565b7f496e766573746f722063616e206f6e6c7920766f7465206f6e636520666f722060008201527f612070726f706f73616c00000000000000000000000000000000000000000000602082015250565b6000611b01602a8361157e565b9150611b0c82611aa5565b604082019050919050565b60006020820190508181036000830152611b3081611af4565b9050919050565b7f63616e206f6e6c7920766f746520756e74696c2070726f706f73616c20656e64600082015250565b6000611b6d60208361157e565b9150611b7882611b37565b602082019050919050565b60006020820190508181036000830152611b9c81611b60565b9050919050565b6000611bae82611468565b91507fffffffffffffffffffffffffffffffffffffffffffffffffffffffffffffffff821415611be157611be0611472565b5b600182019050919050565b6000606082019050611c016000830186611564565b611c0e6020830185611a0f565b611c1b6040830184611659565b949350505050565b7f4e487b7100000000000000000000000000000000000000000000000000000000600052602260045260246000fd5b60006002820490506001821680611c6a57607f821691505b60208210811415611c7e57611c7d611c23565b5b50919050565b7f6f6e6c792061646d696e00000000000000000000000000000000000000000000600082015250565b6000611cba600a8361157e565b9150611cc582611c84565b602082019050919050565b60006020820190508181036000830152611ce981611cad565b9050919050565b7f43616e6e6f307420657865637574652070726f706f73616c206265666f72652060008201527f656e642064617465000000000000000000000000000000000000000000000000602082015250565b6000611d4c60288361157e565b9150611d5782611cf0565b604082019050919050565b60006020820190508181036000830152611d7b81611d3f565b9050919050565b7f43616e6e6f74206578656375746520612070726f706f73616c2074686174206860008201527f617320616c7265616479206265656e2065786563757465640000000000000000602082015250565b6000611dde60388361157e565b9150611de982611d82565b604082019050919050565b60006020820190508181036000830152611e0d81611dd1565b9050919050565b6000611e1f82611468565b9150611e2a83611468565b9250817fffffffffffffffffffffffffffffffffffffffffffffffffffffffffffffffff0483118215151615611e6357611e62611472565b5b828202905092915050565b7f4e487b7100000000000000000000000000000000000000000000000000000000600052601260045260246000fd5b6000611ea882611468565b9150611eb383611468565b925082611ec357611ec2611e6e565b5b828204905092915050565b7f566f746520636f756e742062656c6f772071756f72756d000000000000000000600082015250565b6000611f0460178361157e565b9150611f0f82611ece565b602082019050919050565b60006020820190508181036000830152611f3381611ef7565b9050919050565b7f4e6f7420656e6f75676820736861726573000000000000000000000000000000600082015250565b6000611f7060118361157e565b9150611f7b82611f3a565b602082019050919050565b60006020820190508181036000830152611f9f81611f63565b9050919050565b6000611fb182611468565b9150611fbc83611468565b925082821015611fcf57611fce611472565b5b828203905092915050565b7f616d6f756e7420746f6f20626967000000000000000000000000000000000000600082015250565b6000612010600e8361157e565b915061201b82611fda565b602082019050919050565b6000602082019050818103600083015261203f81612003565b9050919050565b6000819050919050565b600061206b6120666120618461160c565b612046565b61160c565b9050919050565b600061207d82612050565b9050919050565b600061208f82612072565b9050919050565b61209f81612084565b82525050565b6000819050919050565b60006120ca6120c56120c0846120a5565b612046565b611468565b9050919050565b6120da816120af565b82525050565b600060e0820190506120f5600083018a611564565b818103602083015261210781896115d3565b90506121166040830188611564565b6121236060830187612096565b61213060808301866120d1565b61213d60a0830185611564565b61214a60c0830184611659565b98975050505050505050565b7f4e6f7420656e6f75676820617661696c61626c652066756e6473000000000000600082015250565b600061218c601a8361157e565b915061219782612156565b602082019050919050565b600060208201905081810360008301526121bb8161217f565b9050919050565b7f436f6e747269627574696f6e20706572696f64206f7665720000000000000000600082015250565b60006121f860188361157e565b9150612203826121c2565b602082019050919050565b60006020820190508181036000830152612227816121eb565b9050919050565b7f6e6f7420656e6f75676820617661696c61626c652066756e6473000000000000600082015250565b6000612264601a8361157e565b915061226f8261222e565b602082019050919050565b6000602082019050818103600083015261229381612257565b905091905056fea264697066735822122042953acfd3f0fdace2c51c08ed559554d9e240404bb74f54a0070fdc1d9094f264736f6c634300080a0033",
  "immutableReferences": {},
  "source": "// SPDX-License-Identifier: GPL-3.0\r\npragma solidity ^0.8.10;\r\n/**\r\n * DAO contract:\r\n * 1. Collect investors money (ether)\r\n * 2. Keep track of investor contributions with shares\r\n * 3. Allow investors to transfer shares\r\n * 4. Allow investment proposals to be created and voted\r\n * 5. Execute successful investment proposals (ie. send money)\r\n*/\r\ncontract DAO{\r\n\r\n    struct Proposal{\r\n        uint id;\r\n        string name;\r\n        uint amount;\r\n        address payable recipient;\r\n        uint votes;\r\n        uint end;\r\n        bool executed;\r\n    }\r\n\r\n    mapping(uint => Proposal) public proposals;\r\n    mapping(address => bool) public investors;\r\n    mapping(address => uint) public shares;\r\n    mapping(address => mapping(uint => bool)) votes;\r\n    mapping(address => uint) public numberOfVotes;\r\n    uint public totalShares;\r\n    uint public availableFunds;\r\n    uint public contributionEnd;\r\n    uint public nextProposalId;\r\n    uint public voteTime;\r\n    uint public quorum;\r\n    address public admin;\r\n\r\n    event proposalEdit(\r\n          uint id,\r\n          string name,\r\n          uint amount,\r\n          address recipient,\r\n          uint votes,\r\n          uint end,\r\n          bool executed\r\n      );\r\n\r\n    event emitVote(\r\n      uint proposalId,\r\n      address sender,\r\n      bool voted\r\n    );\r\n\r\n\r\n    constructor(\r\n        uint contributionTime,\r\n        uint _voteTime,\r\n        uint _quorum){\r\n            require(_quorum > 0 && _quorum < 100, \"quorum must be between 0 and 100\");\r\n            contributionEnd = block.timestamp + contributionTime;\r\n            voteTime = _voteTime;\r\n            quorum = _quorum;\r\n            admin = msg.sender;\r\n    }\r\n\r\n    function contribute() payable external{\r\n        require(block.timestamp < contributionEnd, \"Contribution period over\");\r\n        investors[msg.sender] = true;\r\n        //1 Wei = 1 share, keep it simple\r\n        shares[msg.sender] += msg.value;\r\n        totalShares += msg.value;\r\n        availableFunds += msg.value;\r\n    }\r\n\r\n    function getVoteStatus(address a, uint b) public view returns(bool){\r\n      return votes[a][b];\r\n    }\r\n\r\n    //3. Allow investors to transfer shares\r\n    //You need to make these shares 'sellable'\r\n    //For investors to sell their shares, we need to deal with liquidity\r\n    //If we just let anyone sell whenever, we are assuming that there is enough liquidity\r\n    //1. Redeem your shares:\r\n        //Ask the smart contract if you can sell your shares back to the smart contract\r\n        //in exchange for your ether, for this you need liquidity\r\n    //2. Transfer shares:\r\n        //Investor A finds investor B who wants to buy shares off of him, after the contribution period\r\n        //They agree on a price, once investor A receives ether, he transfers his shares to investor B\r\n\r\n\r\n    //When somebody invests their money into something, they are hopinh to see some kind of monetary return on\r\n    //investment. For this reason, it is not enough to just return the exact amount (1:1 ratio) that was put into the investment\r\n    function redeemShare(uint amount) external{\r\n        require(shares[msg.sender] >= amount, \"Not enough shares\");\r\n        require(availableFunds >= amount, \"Not enough available funds\");\r\n        shares[msg.sender] -= amount;\r\n        availableFunds -= amount;\r\n        totalShares -= amount;\r\n        //This is flawed but we will leave it as is for now...\r\n        payable(msg.sender).transfer(amount);\r\n    }\r\n\r\n    //The DAO has no knowledge of the Ether transfer that is occuring outside, all that it knows is to transfer shares\r\n    //This process therefore needs to be coordinated by a third party\r\n    function transferShares(uint amount, address to) external{\r\n        require(shares[msg.sender] >= amount, \"Not enough shares\");\r\n        shares[msg.sender] -= amount;\r\n        shares[to] += amount;\r\n        investors[to] = true;\r\n    }\r\n\r\n    //4. Allow investment proposals to be created and voted\r\n        //1) One of the investors will create an investment proposal\r\n        //2) Other investors will be abel to vote\r\n    function createProposal(\r\n        string memory name,\r\n        uint amount,\r\n        address payable recipient)\r\n        external\r\n        onlyInvestors(){\r\n            require(availableFunds >= amount, \"amount too big\");\r\n            proposals[nextProposalId] = Proposal(nextProposalId, name, amount, recipient, 0, block.timestamp+voteTime, false);\r\n            availableFunds -= amount;\r\n            nextProposalId++;\r\n            emit proposalEdit(nextProposalId, name, amount, recipient, 0, block.timestamp+voteTime, false);\r\n        }\r\n\r\n    function vote(uint proposalId) external onlyInvestors(){\r\n        //it is important that we set this variable to storage because otherwise Solidity will have trouble with\r\n        //changing storage variables with memory variables\r\n        Proposal storage prop = proposals[proposalId];\r\n        require(votes[msg.sender][proposalId] == false, \"Investor can only vote once for a proposal\");\r\n        require(block.timestamp < prop.end, \"can only vote until proposal end\");\r\n        votes[msg.sender][proposalId] = true;\r\n        prop.votes += shares[msg.sender];\r\n        numberOfVotes[msg.sender]++;\r\n        emit emitVote(proposalId, msg.sender, true);\r\n    }\r\n\r\n\r\n    function executeProposal(uint proposalId) external onlyAdmin(){\r\n        Proposal storage prop = proposals[proposalId];\r\n        require(block.timestamp >= prop.end, \"Canno0t execute proposal before end date\");\r\n        require(prop.executed == false, \"Cannot execute a proposal that has already been executed\");\r\n        require((100*prop.votes/totalShares) >= quorum, \"Vote count below quorum\");\r\n        prop.executed = true;\r\n        availableFunds += prop.amount;\r\n        _transferEther(prop.amount, prop.recipient);\r\n    }\r\n\r\n    function withdrawEther(uint amount, address payable to) external onlyAdmin(){\r\n        _transferEther(amount,to);\r\n    }\r\n    receive() payable external{}\r\n    fallback() payable external{\r\n        availableFunds += msg.value;\r\n    }\r\n\r\n    function _transferEther(uint amount, address payable to) internal{\r\n        require(amount <= availableFunds, \"not enough available funds\");\r\n        availableFunds -= amount;\r\n        to.transfer(amount);\r\n    }\r\n\r\n    modifier onlyInvestors(){\r\n        require(investors[msg.sender] == true, \"only investors\");\r\n        _;\r\n    }\r\n\r\n    modifier onlyAdmin(){\r\n        require(msg.sender == admin, \"only admin\");\r\n        _;\r\n    }\r\n\r\n}\r\n",
  "sourcePath": "C:\\Users\\stefa\\Harddisk Documents\\Dapp30\\Day15\\contracts\\DAO.sol",
  "compiler": {
    "name": "solc",
    "version": "0.8.10+commit.fc410830.Emscripten.clang"
  },
  "schemaVersion": "3.4.4",
  "updatedAt": "2022-02-06T23:04:39.643Z",
  "networkType": "ethereum",
  "devdoc": {
    "kind": "dev",
    "methods": {},
    "version": 1
  },
  "userdoc": {
    "kind": "user",
    "methods": {},
    "notice": "DAO contract: 1. Collect investors money (ether) 2. Keep track of investor contributions with shares 3. Allow investors to transfer shares 4. Allow investment proposals to be created and voted 5. Execute successful investment proposals (ie. send money)",
    "version": 1
  }
}